:020000040800F2
:10000000F8090020A90100081B1500080B110008C1
:1000100019150008310300087D1E000800000000CB
:100020000000000000000000000000001F15000894
:1000300033030008000000001D15000851180008D7
:10004000C3010008C3010008C3010008C301000880
:10005000C3010008C3010008C3010008C301000870
:10006000C3010008C3010008C3010008C301000860
:10007000C3010008C3010008C3010008C301000850
:10008000C3010008C3010008C3010008000000000C
:10009000000000000000000000000000C301000894
:1000A000C3010008C3010008C3010008C301000820
:1000B000C3010008C3010008C3010008C301000810
:1000C000C3010008C3010008C3010008C301000800
:1000D000C3010008391E0008C30100080000000029
:1000E000C3010008C3010008C301000800000000AC
:1000F000000000000000000000000000C301000834
:1001000000000000C3010008C3010008C30100088B
:1001100000000000000000000000000000000000DF
:10012000C3010008C3010008C3010008C30100089F
:10013000C3010008000000000000000000000000F3
:10014000000000000000000000000000C3010008E3
:10015000C3010008C3010008C3010008C30100086F
:10016000C3010008C30100080000000000000000F7
:10017000000000000000000000000000000000007F
:1001800000000000C30100080000000000000000A3
:10019000C3010008DFF80CD000F0B8F800480047B1
:1001A000D9230008F8090020064880470648004780
:1001B000FEE7FEE7FEE7FEE7FEE7FEE7FEE7FEE717
:1001C000FEE7FEE7DD180008950100082DE9F05F65
:1001D0000546002092469B468846064681464024B6
:1001E0001BE0284641464746224600F07FF853462A
:1001F0005A46C01A914110D311461846224600F0C3
:1002000066F82D1A67EB01084F46224601200021AF
:1002100000F05DF817EB00094E41201EA4F1010427
:10022000DFDC484631462A464346BDE8F09FD2B25D
:1002300001E000F8012B491EFBD270470022F6E7CF
:1002400010B513460A4604461946FFF7F0FF20464C
:1002500010BD30B505462A460B4612F8010B13F8BF
:10026000014B08B1A042F8D01CB1002802D06D1C8F
:10027000F1E7284630BD421C10F8011B0029FBD1D4
:10028000801A704730B505460020034600E05B1C2D
:10029000934205D2EC5CC85C201A01D1002CF6D147
:1002A00030BD30B50B46014600202022012409E074
:1002B00021FA02F59D4205D303FA02F5491B04FA1F
:1002C00002F52844151EA2F10102F1DC30BD202AFE
:1002D00004DB203A00FA02F1002070479140C2F19D
:1002E000200320FA03F3194390407047202A04DBCF
:1002F000203A21FA02F00021704721FA02F3D0409F
:10030000C2F120029140084319467047064C074D40
:1003100006E0E06840F0010394E8070098471034D5
:10032000AC42F6D3FFF73AFFA0290008C029000825
:10033000FEE7704770B500244FF47A7540F6B83682
:1003400033A002F061F9384803E038A002F05CF90C
:100350003C4802F04BF929460BE03BA002F054F96F
:10036000404803E040A002F04FF9454802F03EF952
:10037000314644A001F0AAFE00282CD12FE000BF96
:1003800040F6C41000F0BCF825E03FA002F03CF9B4
:10039000434802F02BF931463AA001F097FE08B12C
:1003A000641CE4B23FA002F02FF9454802F01EF9A8
:1003B000314634A001F08AFE08B1641CE4B241A0C9
:1003C00002F022F9454802F011F941F2883144A0C7
:1003D00001F07CFE08B1641CE4B2082C12D0C820E5
:1003E00000F08EF8082CF8D2DFE804F00B0A0908B8
:1003F00007060504E3E7D5E7C7E7C1E7B2E7ACE7DF
:10040000A3E79DE7BDE8704037A002F0FDB800000B
:1004100073656E645F737472696E672861745F746C
:10042000657374290D0A00002426000873656E6444
:100430005F737472696E67286563686F4F666629BB
:100440000D0A00002926000873656E645F737472DC
:10045000696E67286D756C7469705F436F6E6E2985
:100460000D0A00008726000873656E645F7374725E
:10047000696E67286573705F4D6F6465290D0A00AA
:10048000952600084F4B000073656E645F737472AD
:10049000696E672873746172745F4150290D0A0098
:1004A0006F26000873656E645F737472696E6728E7
:1004B00073746172745F536572766572290D0A00F8
:1004C000A326000873656E645F737472696E672893
:1004D0006765745F4950290D0A000000582600081E
:1004E0002B43494653523A0041636365737320704E
:1004F0006F696E742069732072656164790D0A00FA
:1005000070B5044600F0D8F80546601C02D00448D7
:100510000078044400F0D0F8401BA042FAD370BD2C
:10052000200000202DE9F84FDFF860B100224FF0E5
:1005300001084FF0030A4FF00F090BF1040E00BF42
:100540000B6808FA02F42340A3426ED14D68022DD5
:1005500001D0122D0ED1D50800EB850CDCF820500F
:100560005607F70E09FA07F6B5430E69BE402E434B
:10057000CCF82060066855000F790AFA05FC07F0F0
:10058000030726EA0C06AF40374307604E68012E8A
:1005900005D0022E03D0112E01D0122E0ED1866866
:1005A000CF6826EA0C06AF40374387604668A6430B
:1005B0000C79C4F30014944034434460C6688C68DA
:1005C00026EA0C06AC403443C4604C68E40056D5BF
:1005D0002F4C256845F480452560246822F00305EA
:1005E00004F4804400942B4C2E19D6F80848950743
:1005F0002F0F09FA07F5AC43274DA84201D100257A
:1006000015E0264DA84201D1012510E0244DA84255
:1006100001D102250BE0234DA84201D1032506E0BC
:10062000214DA84202D1042501E028E00725BD4064
:100630002543C6F80858DBF800405D464E689C43E9
:10064000F60300D51C432C60DEF8004075464E686A
:100650009C43B60300D51C432C600C4D08352C6818
:100660004E689C43F60200D51C432C60074D0C35A8
:100670002C684E689C43B60200D51C432C60521C6B
:10068000102AFFF45DAFBDE8F88F0000003C014088
:1006900044380240003001400000024000040240A3
:1006A00000080240000C0240001002400AB18161C3
:1006B00070470904FBE700000148806870470000AC
:1006C0002000002002488168027811448160704750
:1006D000200000200B4810B5016841F40071016052
:1006E000016841F480610160016841F4807101603A
:1006F000032000F071F8002000F006F800F024F864
:10070000002010BD003C024070B50D4D04464FF472
:100710007A712878B1FBF0F00A490968B1FBF0F072
:1007200000F0E2FA48B9102C07D200222146501EF0
:1007300000F032F800206C6070BD012070BD000038
:10074000200000202C0000200B4882B0016841F4FA
:1007500080410160006800F4804000900648001F5E
:10076000016841F080510160006800F08050009005
:10077000072002B000F030B844380240002809DBFE
:1007800000F01F02012191404009800000F1E020AB
:10079000C0F8001170470000F0B40E4B1B680C4607
:1007A000C3F30223C3F10705042D00D90425191D45
:1007B000072901D2002300E0DB1E012606FA05F11D
:1007C000491E214099409E40761E16403143F0BCA0
:1007D00001F07ABB0CED00E0064900F00702086862
:1007E0004FF6FF03184040EA0220034A1043086016
:1007F000704700000CED00E00000FA052DE9F0471D
:100800000E46050065D0DFF81481D8F80000F7B275
:1008100000F00F00B04207D288F80070D8F800004E
:1008200000F00F00B04254D128683D4C810712D52A
:10083000400703D5206840F4E05020602878000786
:1008400003D5206840F4604020602068A96820F04B
:10085000F000084320602878C0072DD03049686830
:100860000839012812D0022813D0032811D00968B2
:10087000890700292DDA216821F003010143216055
:10088000FFF71AFF814641F2883A0EE009688903B2
:10089000EFE709688901ECE7FFF70EFFA0EB09011C
:1008A000514502D90320BDE8F0872068696800F04F
:1008B0000C00B0EB810FEFD1D8F80010404601F0EA
:1008C0000F01B14207D90770006800F00F00B04275
:1008D00001D00120E7E72878400705D52068E968BE
:1008E00020F4E050084320602878000706D52068EF
:1008F000296920F4604040EAC100206000F036F829
:100900002168084AC1F30311515CC84006490860D8
:100910000020FFF7F9FE0020C5E70000003C024080
:1009200008380240862900082C00002004480549A8
:1009300000680968044AC1F38221515CC8407047CD
:100940002C00002008380240962900080448054978
:1009500000680968044AC1F34231515CC8407047DD
:100960002C0000200838024096290008154810B5D0
:10097000006810F00C02144813D04110042A0FD064
:10098000082A0ED10F4C241F2268236802F03F0270
:100990005B0207D52068C0F38810A0FB010106E0C8
:1009A000084610BD2168C1F38811A1FB0001002396
:1009B000FFF70CFC2168C1F30141491C4900B0FB61
:1009C000F1F010BD083802400024F4002DE9F84F82
:1009D000050076D02878DFF8F8B2BE4CC00749D0C1
:1009E000DBF800105846C1F38101012908D00068E6
:1009F000C0F3810002280AD1201D0068400206D5FC
:100A00002068800336D568680028E2D032E0686844
:100A1000B0F5803F10D0B0F5A02F206810D020F4A2
:100A200080302060206820F4802020606868A0B1B9
:100A3000FFF742FE06460CE0206840F48030F4E701
:100A400040F480202060F7E7FFF736FE801B642823
:100A500073D820688003F7D50CE0FFF72DFE06461B
:100A600005E000BFFFF728FE801B6428F0D820684F
:100A70008003F7D42878DFF8608280074FF0000900
:100A80003ED5DBF80010584611F00C0F09D0006875
:100A9000C0F3810002280BD18D48001F006840027E
:100AA00006D42068800715D5E868012809D111E02F
:100AB000E868B8B10120C8F80000FFF7FDFD064660
:100AC00005E002E1FFF7F8FD801B0228C0D820688E
:100AD0008007F7D52068296920F0F80040EAC100B6
:100AE00020600DE0C8F80090FFF7E6FD064604E040
:100AF000FFF7E2FD801B02281FD820688007F7D48B
:100B00002878000722D5724E744869696C3671B135
:100B100001210160FFF7D0FD074604E0FFF7CCFD9F
:100B2000C01B022809D830688007F7D50EE0C0F84E
:100B30000090FFF7C1FD074605E083E0FFF7BCFD2D
:100B4000C01B02287ED830688007F7D42878400779
:100B500068D5DFF87CA100270AF1380ADAF800002E
:100B6000C0000BD4DAF8001041F08051CAF8001030
:100B7000DAF80000012700F080500090584E3068ED
:100B8000C00510D4306840F480703060FFF794FDE9
:100B9000009005E0FFF790FD0099401A022851D817
:100BA0003068C005F6D54A4EA868683601280FD0CF
:100BB0000528306810D020F001003060306820F047
:100BC00004003060A868B8B1FFF776FD00900FE030
:100BD000306840F00100F4E740F004003060F7E7CF
:100BE000FFF76AFD0099411A41F28830814264D8CA
:100BF00030688007F4D50EE0FFF75EFD009007E057
:100C0000FFF75AFD0099411A41F28830814254D8C9
:100C100030688007F4D42FB1DAF8001021F0805149
:100C2000CAF80010A869C0B3DBF80010C1F3810155
:100C300002294AD00228484607D0C8F86000FFF7CA
:100C40003BFD00E039E005463AE04746C8F8600061
:100C5000FFF732FD064604E0FFF72EFD801B022859
:100C60002BD820688001F7D4D5E907010843A96A89
:100C70001C4A490802EB01416A6A41EA82110843B1
:100C800095F82C1040EA01611148001F0160012015
:100C90003866FFF711FD054605E014E0FFF70CFD8F
:100CA000401B022809D820688001F7D50BE000BF5F
:100CB000FFF702FD401B022802D90320BDE8F88F90
:100CC00020688001F4D40020F8E70120F6E7000056
:100CD000083802400038024000004742800E474278
:100CE000007000400000FFFF10B5401EB0F1807F93
:100CF00001D3012010BD4FF0E02460610F21601787
:100D000001F0E2F80020A06107202061002010BD62
:100D100070B590F83C20012A19D0012400F83C4F0E
:100D20000222427050F83C3C5A689D6822F07006DE
:100D30000A684968324325F0800529435A6050F813
:100D40003C2C9160447000210170084670BD022067
:100D500070BD000030B587B0044614216846FFF727
:100D60006DFA15492068884224D11448002501688D
:100D700041F001010160016801F001010591016884
:100D800041F0040101600068022400F004000590B5
:100D900040208DE831000394694609480494FFF728
:100DA000C1FBE0018DE831000394694605480494D5
:100DB000FFF7B8FB07B030BD0004004030380240F8
:100DC000000002400008024070B5044690F83C0064
:100DD0000D4601280DD0012684F83C60022084F8DD
:100DE0003D0042B1042A18D0082A2AD00C2A4DD13D
:100DF00039E0022070BD206800F0F4FD20688169B0
:100E000041F0080181612068816921F0040181615C
:100E1000206881692A69114311E0206800F00AFE08
:100E20002068816941F4006181612068816921F451
:100E300080618161206881692A6941EA02218161BA
:100E400024E0206800F022FE2068C16941F008011A
:100E5000C1612068C16921F00401C1612068C169D4
:100E60002A69114311E0206800F03CFE2068C16946
:100E700041F40061C1612068C16921F48061C161F0
:100E80002068C1692A6941EA0221C16184F83D6094
:100E9000002084F83C0070BD10B5040003D094F825
:100EA0003D0010B107E0012010BD002084F83C0097
:100EB000204600F00DF8022084F83D00211D206836
:100EC00000F036FD012084F83D00002010BD000038
:100ED00008B500680649884208D10648016841F013
:100EE00002010160006800F00200009008BD0000EF
:100EF000000400404038024010B50446006801225A
:100F000000F062FD09492068884203D1416C41F438
:100F1000004141642068816801F00701062903D07F
:100F2000016841F001010160002010BD0000014096
:100F300070B5040004D094F83900002510B106E023
:100F4000012070BD84F83850204600F023F824209A
:100F500084F839002068C16821F40051C16020463E
:100F600000F0E2FD2068016921F4904101612068F0
:100F7000416921F02A0141612068C16841F40051B2
:100F8000C160E563202084F8390084F83A0000202D
:100F900070BD000070B586B0044614216846FFF7A6
:100FA0004DF9274E236800222649022407252648AA
:100FB000B34226D1234B14331E6846F010061E6040
:100FC0001B6803F0100305930B6843F001030B60EB
:100FD0000968049501F0010105914FF4C061CDE964
:100FE00000140321CDE902216946FFF79BFA002294
:100FF00011462520FFF7D0FB2520FFF7BFFB06B0E9
:1010000070BD124EB342FAD10E4B10331E6846F437
:1010100000361E601B6803F4003305930B6843F031
:1010200001030B60096801F0010105910C21009199
:10103000CDE90142CDE903256946FFF773FADEE702
:1010400000100140303802400000024000440040DF
:101050002DE9F843044690F839001F4616460D4620
:10106000202850D1A5B19EB194F8380001284AD06B
:10107000012084F838004FF00008C4F83C8021209B
:1010800084F83900FFF718FBA6848146E68426E041
:101090000120BDE8F883E08C401EE084A0684B4648
:1010A000B0F5805F4FF000024FF0800120460097BE
:1010B00003D000F08FFEE8B90DE000F08BFEC8B958
:1010C00028882168C0F308004860206908B16D1CB9
:1010D00005E0AD1C03E0216815F8010B4860E08CC9
:1010E0000028D8D14B46002240212046009700F02E
:1010F00071FE08B10320CCE7202084F8390084F881
:1011000038800020C5E70220C3E7FEE72DE9F05F45
:1011100001F010F897A19848FFF79BF8DFF860926C
:101120000025964CDFF85882964E4FF6E857A9F105
:101130000809002840D0BA464F4693A001F064FA4F
:10114000C4F818A0C8F800A0012220213046FFF7FB
:10115000ADFA002240213046FFF7A8FAA0693860B6
:10116000012204213046FFF7A1FA0022082130466F
:10117000FFF79CFA86A18048FFF76BF80028DCD0C7
:1011800084A001F041FAA561C8F800500022202196
:101190003046FFF78BFA002240213046FFF786FAEF
:1011A0003D60002204213046FFF780FA002208212A
:1011B0003046FFF77BFAD7E078A16F48FFF749F890
:1011C00028B3BA464F4676A001F01EFAC4F818A01C
:1011D000C8F800A0002220213046FFF767FA01225C
:1011E00040213046FFF762FAA069386000220421EE
:1011F0003046FFF75BFA012208213046FFF756FA26
:1012000063A15D48FFF725F80028DCD0B8E767A1A7
:101210005948FFF71EF828B3BA464F4664A001F0BC
:10122000F3F9C4F818A0C8F800A000222021304625
:10123000FFF73CFA012240213046FFF737FAA06958
:101240003860012204213046FFF730FA00220821DD
:101250003046FFF72BFA4EA14748FEF7FAFF002869
:10126000DCD08DE754A14448FEF7F3FF28B3BA461B
:101270004F4652A001F0C8F9C4F818A0C8F800A061
:10128000012220213046FFF711FA0022402130468A
:10129000FFF70CFAA0693860002204213046FFF7FE
:1012A00005FA012208213046FFF700FA38A132483A
:1012B000FEF7CFFF0028DCD062E742A12E48FEF700
:1012C000C8FF20B3BA464F463FA001F09DF9C4F8CD
:1012D00018A0C8F800A0012220213046FFF7E6F947
:1012E000002240213046FFF7E1F93D600022042151
:1012F0003046FFF7DBF9012208213046FFF7D6F927
:1013000023A11D48FEF7A5FF0028DDD038E731A155
:101310001948FEF79EFF00282AD0AB46BA4647463A
:101320004D462DA001F070F9C4F818A0C7F800B020
:10133000002220213046FFF7B9F900224021304633
:10134000FFF7B4F9A0692860002204213046FFF7B6
:10135000ADF9012208213046FFF7A8F90CA1064893
:10136000FEF777FF0028DCD0BDE8F05F00F0E2BEBA
:10137000BDE8F09F62000000D000002000000020C7
:101380003C040040000802406261636B0D0A0000EB
:101390007A0000007A65726F0D0A00006600000096
:1013A000666F7277776172640D0A00007200000048
:1013B00072696768740D0A006C0000006C656674E1
:1013C0000D0A00007100000054616E6B6C6566745C
:1013D0000D0A00006500000054616E6B5269676879
:1013E000740D0A00F0B587B014216846FEF726FF99
:1013F0002A480024016841F004010160016801F0FD
:1014000004010591016841F080010160016801F06B
:1014100080010591016841F001010160016801F05E
:1014200001010591016841F00201016000681C4E54
:1014300000F00200059000226C213046FFF736F9DB
:10144000184F002220213846FFF730F94FF40050A2
:1014500000901548CDE9010469463046FFF762F86F
:101460006C2000900125CDE9015469463046039473
:10147000FFF758F820200090CDE90154694638461E
:101480000394FFF74FF8A803CDE90004022002906F
:1014900069460648FFF746F807B0F0BD303802400D
:1014A0000008024000000240000021100004024039
:1014B00010B58AB0002407941C2168460894FEF7F2
:1014C000BDFE14481249C0E900144FF6FF71C0E98F
:1014D000024104618461FFF7DFFC079407A90D480E
:1014E0000894FFF715FC6020CDE900040294002267
:1014F000694608480494FFF767FC082269460548D6
:10150000FFF762FC0348FFF725FC0AB010BD00009E
:101510000004004004050020FEE770477047704754
:10152000F0B593B000247EA00F9401F06DF882A076
:1015300001F05CF840F6C410FEF7E2FF00F0FAFD9F
:1015400080A001F061F8FEF7F5FE824D6878002872
:101550005DD1642180A000F0B9FD002836D0287844
:10156000002833D08048FEF786FE2C22CDE90020EB
:1015700070A1029100237DA27FA10FA800F090FC32
:101580000FA801F041F80FA801F030F83220FEF763
:10159000B7FF4FF4FA717BA000F098FD0028D8D077
:1015A00000F0C8FD704801F021F83220FEF7A8FFD6
:1015B0004FF47A7174A000F089FD0028C9D0322060
:1015C000FEF79EFF00F0B6FD2C70C2E764216FA00D
:1015D00000F07CFD0128BCD128780028B9D1012079
:1015E000287054A001F010F86B4801F00DF851A0DC
:1015F00001F00AF800F048FF00F09CFD3220FEF7F1
:101600007FFF654801F000F864A000F0FDFF62482C
:1016100064A12838FEF71DFE00286CD062A000F0FF
:10162000F3FF00F099FD64A1D1E90001CDE91001BB
:10163000342102A8FEF702FE40F2093601254FF4DC
:10164000FA67002310AA5EA102A800F029FC02A9F3
:101650005DA000F015FC61A000F012FC02A8FEF7EE
:101660000AFE034633A0CDE90004634A63A166483D
:1016700000F016FC644800F0B9FF3220FEF740FF8E
:1016800062A000F0FDFB02A800F0B0FF424800F0AD
:10169000BBFF00F043FD394661A000F017FD18B113
:1016A000002561A000F0B0FF0023324661A102A82E
:1016B00000F0F6FB02A944A000F0E2FB47A000F016
:1016C000DFFB02A8FEF7D7FD03461AA0CDE9000410
:1016D000494A4AA14C4800F0E3FB4B4800F086FF22
:1016E0003220FEF70DFF02A800F080FFFFF70EFD8D
:1016F000012DD9D1A5E7284850A12838FEF7A9FD2A
:1017000010B96878002808D04DA000F07DFFFEF7E2
:1017100011FE00BFFFF7FAFCFCE713B0F0BD0000BC
:1017200073656E645F737472696E67287265737433
:10173000617274290D0A000041542B5253540D0A52
:1017400000000000537461727420494E49540D0A20
:101750000000000000000020474554202F2048547E
:1017600054502F312E310000C226000841542B4323
:10177000495053454E443D00257325642563256437
:10178000257300003E0000004F4B000047455420E9
:101790002F41503F00000000D00000206F6B6579A2
:1017A000000000005354000053542073746172749D
:1017B000696E670D0A000000696D2053544D0000EA
:1017C00025732563000000006164635F76616C75BA
:1017D00065203D2025730D0A0000000073656E64CE
:1017E0005F5453505F73697A656F665F6D6573739D
:1017F0006167650D0A0000006326000825732564F3
:101800002573256300000000C405002073656E6425
:101810005F5453505F6D6573736167650D0A000017
:1018200053454E44204F4B0073656E6420454E4433
:101830000D0A0000256425630000000041500000EF
:101840004150207374617274696E670D0A00000064
:10185000FEF738BF30B593B030216846FEF7EEFC96
:1018600014210CA8FEF7EAFC1A480024016841F094
:1018700080510160006800F08050119016480168A6
:1018800021F4404141F4004101600068022500F468
:10189000404011900120039010200095069504907F
:1018A000CDE907404FF4A870099004200A90072062
:1018B0000B906846FFF78AF80F20CDE90C05E80287
:1018C000CDE90E4002210CA81094FEF797FF13B04B
:1018D00030BD0000403802400070004010480168F0
:1018E00041F4700101600F48016841F0010101609D
:1018F0000C4A00210832116002680B4B1A4002604A
:10190000031D0A4A1A60026822F480220260054818
:101910000C300160024958068039086070470000A9
:1019200088ED00E000380240FFFFF6FE1030002492
:10193000F0B502681D4B1E4C9F031E4D1E4E984273
:1019400007D0B84205D0A04203D0A84201D0B0428F
:1019500004D122F0700C4A6842EA0C02984210D07E
:10196000B8420ED0A0420CD0A8420AD0B04208D053
:10197000124CA04205D0124CA04202D0114CA04201
:1019800003D122F44074CA6822434C6922F08002D9
:10199000224302608A68C2620A688262984201D168
:1019A0000969016301214161F0BD000000000140AF
:1019B0000004004000080040000C004000400140CE
:1019C000004401400048014010B501F01F0301210F
:1019D000046A99408C430462016A9A40114301628F
:1019E00010BD000030B5026A22F001020262026AF4
:1019F0004368846924F073050C682C4322F00205C7
:101A00008A682A430A4DA8420BD122F00805CA6809
:101A100023F440732A434D6922F004021D438B696D
:101A20002B434360846149684163026230BD00001A
:101A30000000014030B5026A22F010020262026A20
:101A4000436884690D6824F4E64444EA05248D68FB
:101A500022F0200242EA05120B4DA8420ED1CD68B9
:101A600022F0800242EA05124D6923F4406343EA02
:101A700085038D6922F0400243EA85034360846157
:101A800049688163026230BD0000014030B5026ADE
:101A900022F480720262036A4268C46923F400730C
:101AA00024F073050C682C438D6843EA05230C4D24
:101AB000A8420ED1CD6823F4006343EA05234D69A3
:101AC00022F4405242EA05128D6923F4806342EA0F
:101AD00005124260C4614968C163036230BD000001
:101AE0000000014030B5026A22F480520262046AAA
:101AF0004268C3690D6823F4E64343EA05238D6811
:101B000024F4005444EA0534064DA84204D14D693A
:101B100022F4804242EA85124260C361496801644E
:101B2000046230BD000001402DE9F0410446006828
:101B30000169E26821F44051114301612169A06803
:101B4000E26908436169114322680843D16849F298
:101B50000C6399430143D16020684169A26921F473
:101B6000407111434161E2696425B2F5004F974825
:101B7000974922684FF032083FD08A4201D0824212
:101B80007CD1FEF7E3FE00EBC00101EB00106168C1
:101B90008900B0FBF1F6FEF7D9FE00EBC00101EBC6
:101BA000001061688900B0FBF1F0B0FBF5F06FF058
:101BB0001801484306EB800108EB0110B0FBF5F07B
:101BC00000F0F006FEF7C2FE00EBC00101EB0010D2
:101BD00061688900B0FBF1F0B0FBF5F006EB001690
:101BE000FEF7B4FE00EBC00101EB00106168890054
:101BF000B0FBF1F7FEF7AAFED2E08A4201D08242A2
:101C00003DD1FEF7A3FE00EBC00101EB00106168BF
:101C10004900B0FBF1F0B0FBF5F00601FEF796FECF
:101C200000EBC00101EB001061684900B0FBF1F767
:101C3000FEF78CFE00EBC00101EB0010616849006B
:101C4000B0FBF1F0B0FBF5F06FF01801484307EB83
:101C5000800108EBC100B0FBF5F000F0F80006EBE6
:101C60004006FEF773FE00EBC00101EB0010616857
:101C70004900B0FBF1F7FEF769FE3CE055E0FEF7E6
:101C800055FE00EBC00101EB001061684900B0FB9C
:101C9000F1F0B0FBF5F00601FEF748FE00EBC001E5
:101CA00001EB001061684900B0FBF1F7FEF73EFE62
:101CB00000EBC00101EB001061684900B0FBF1F0DE
:101CC000B0FBF5F06FF01801484307EB800108EB1B
:101CD000C100B0FBF5F000F0F80006EB4006FEF79F
:101CE00025FE00EBC00101EB001061684900B0FB6C
:101CF000F1F7FEF71BFE00EBC00101EB001061687D
:101D00004900B0FBF1F0B0FBF5F06FF0180148436B
:101D100007EB800108EBC100B0FBF5F000F0070015
:101D2000216830448860BDE8F081FEF7FFFD00EBDC
:101D3000C00101EB001061688900B0FBF1F6FEF70D
:101D4000F5FD00EBC00101EB001061688900B0FBFC
:101D5000F1F0B0FBF5F06FF01801484306EB80019D
:101D600008EB0110B0FBF5F000F0F006FEF7DEFD29
:101D700000EBC00101EB001061688900B0FBF1F0DD
:101D8000B0FBF5F006EB0016FEF7D0FD00EBC0014E
:101D900001EB001061688900B0FBF1F7FEF7C6FDAA
:101DA00000EBC00101EB001061688900B0FBF1F0AD
:101DB000B0FBF5F06FF01801484307EB800108EB2A
:101DC0000110B0FBF5F000F00F00A9E7001401408E
:101DD000001001402DE9F041984617460E46044692
:101DE000069D1DE0681C1BD02DB1FEF765FCA0EB25
:101DF0000800A84214D92068C16821F4D071C160DC
:101E00002068416921F001014161202084F83900F6
:101E100084F83A00002084F838000320BDE8F081FF
:101E20002068006836EA000004D00020B842D9D00B
:101E30000020F3E70120F9E770B50C4801680C4C6D
:101E40000C4D89060DD54068C1B260882A18401C27
:101E5000608011706088C0F30900608006A000F007
:101E60000FF8618800202944487070BD00100140BF
:101E700000000020D000002025630000FEE70000E5
:101E80000FB4054B10B503A9044A029800F03CF8C2
:101E900010BC5DF814FB0000BD2300081C000020EE
:101EA0000FB4084B10B504A902AA039800F02CF84F
:101EB000044602A9002000F003F9204610BC5DF89A
:101EC00014FB0000C12000080907090E002804DBEC
:101ED00000F1E02080F80014704700F00F0000F1DE
:101EE000E02080F8141D704702E008C8121F08C1E6
:101EF000002AFAD170477047002001E001C1121F8B
:101F0000002AFBD1704700002DE9FF4F8BB09A46A5
:101F10000F460546002606E025280BD052460D99AF
:101F200090476D1C761C28780028F5D10FB03046FC
:101F3000BDE8F08F0024A0460122604900E0044380
:101F400015F8013F203B02FA03F00842F7D1287848
:101F50002E2817D115F8010F44F004042A280ED0BA
:101F60006FF02F022878A0F1300109290AD808EB78
:101F7000880102EB410100EB01086D1CF2E757F804
:101F8000048B6D1C287869283ED006DC0028CDD053
:101F900063280BD0642804D136E0732810D075284C
:101FA0004BD052460D999047761C85E017F8040BEC
:101FB0008DF8000000208DF80100E946012003E0C3
:101FC00057F8049B4FF0FF3061074FF0000401D435
:101FD0000AE0641C44450DDA8442FADB19F8041067
:101FE0000029F6D106E0641C8442FCDB19F80410D9
:101FF0000029F8D1264404E019F8010B52460D9946
:102000009047641EF8D257E001CF4FF00A0B00282A
:1020100002DA40422D2102E0210504D52B218DF862
:102020002410012103E0E10705D02021F7E70DF19D
:10203000200908910CE00021F9E701CF4FF00A0BCD
:10204000F9E75946FEF72DF901F1300209F8012DA3
:102050000028F6D1ADEB090000F1200B600701D498
:102060004FF00108D84502DDA8EB0B0000E000208E
:102070008046002406E009A85246005D0D9990476D
:10208000641C761C08988442F5DB04E0302052463C
:102090000D999047761CB8F10001A8F10108F5DC14
:1020A00005E019F8010B52460D999047761CBBF1DB
:1020B0000001ABF1010BF4DC6D1C34E709280100D1
:1020C0000A68531C0B6010707047000070B50D4615
:1020D0000646FEF7F1FA04460EE031460C48FEF7DC
:1020E000B8F848B10B48FEF7C6F802460AA10948FD
:1020F000FEF7C8F838B108E0FEF7DEFA001BA84288
:10210000EBD3002070BD00F015F8012070BD000079
:10211000D000002004000020535400000020044997
:1021200002460A54401C80B23228FAD3704700009D
:10213000D004002000210648064B04E04288995450
:102140004288521E42804288002AF7D1418070475F
:1021500000000020D00000203EB500244FF47A7526
:1021600040A000F051FA454803E045A000F04CFAC9
:10217000494800F03BFA71E048A043E048A000F075
:1021800043FA4E48F5E74EA000F03EFA52A000F0A8
:102190002DFA40F6C410FEF7B3F9FFF7CBFF34E099
:1021A00050A000F031FA574955A257A08DE807001A
:1021B000A1F1140355A258A15A48FFF771FE5948DE
:1021C00000F014FA42F21071D6E757A000F01CFAA2
:1021D0005E4800F00BFA41F28831CDE75CA000F0D8
:1021E00013FA6148C5E761A000F00EFA6348C0E742
:1021F00063A000F009FA4348143000F0F7F940F604
:10220000B83164A0FFF762FF18B1641CE4B20A2C75
:1022100026D0C820FEF774F90A2CF8D2DFE804F0C3
:102220000D0C0B0A09080706050EE1E7DBE7D5E709
:10223000CBE7B5E7A7E7A1E797E791E757A000F05D
:10224000E3F95C4800F0D2F95B48FEF714F85A490C
:1022500082B22B4601F2B440FEF7FAFE29468BE724
:102260003EBD000073656E645F737472696E6728AB
:1022700061745F74657374290D0A000024260008D8
:1022800073656E645F737472696E67286563686FE7
:102290004F6666290D0A0000292600084F4B0000F2
:1022A00073656E645F737472696E672873746174AA
:1022B000696F6E5F6D6F6465290D0A003026000836
:1022C00073656E645F737472696E67287265737488
:1022D000617274290D0A000041542B5253540D0AA7
:1022E0000000000073656E645F737472696E672826
:1022F000636F6E6563745F746F5F4150290D0A00F0
:10230000220D0A0049290008222C220041542B43A7
:10231000574A41503D2200002573257325732573CC
:1023200025730000C405002073656E645F737472CA
:10233000696E6728636F6E6563745F746F5F415089
:102340005F737473747573290D0A00003E260008CC
:1023500073656E645F737472696E67286765745F16
:102360004950290D0A000000582600084E6F4D758F
:102370006C74436F6E6E0D0A000000004A26000860
:10238000636F6E6E65637420746F2073657276651B
:10239000720D0A00434F4E4E45435400696E666FFE
:1023A0002061626F757420636F6E6E6563743A0DA1
:1023B0000A000000B7260008D0000020054909687F
:1023C000C90105D54FF060410A68002AFCD00870A9
:1023D00070470000FCED00E0F8B5FEF77BF9FFF771
:1023E00039FAFEF7FFFF1F481D494FF4E13600247C
:1023F0000160C0E901640C27C460C0E9044784613E
:10240000C461FEF795FD174D1748403D2860C5E9AA
:102410000164EC60C5E90447AC612846EC61FEF755
:1024200087FDFFF745F800942868C16841F0200156
:10243000C1600021A5F14000FEF75EFD0821A5F175
:102440004000FEF759FD09A309A20DA16846FFF758
:1024500027FD684600F0D8F8FFF762F80020F8BDC5
:102460000044004084050020001001400D0A0000D7
:102470000D0A494E49542046494E495348454400A7
:10248000257325730000000070B507253CA13E4868
:10249000FDF7DFFE3D4C3EA1A0603B48FDF7D9FEB5
:1024A000E0603DA13848FDF7D4FE20613CA13648EC
:1024B000FDF7CFFE6061344B0020A03BA26802E034
:1024C0001954401C6D1C515D2629F9D136A000F02D
:1024D0009BF839A000F098F82B48A03800F094F849
:1024E000294D07200021783DE36802E06A54401C32
:1024F000491C1A5C262AF9D12EA000F085F830A0DC
:1025000000F082F82048783800F07EF829A000F02A
:102510007BF81D4D00210520503D236902E06A54DF
:10252000401C491C1A5C262AF9D128A000F06CF83E
:102530001548503800F068F81EA000F065F863698F
:10254000114C00210520283C02E06254401C491C2B
:102550001A5C202AF9D11FA000F056F80A48283842
:1025600000F052F813A000F04FF8074800F04CF8C4
:102570001AA000F049F8BDE87040FFF7DBBD00008D
:1025800061704E616D653D00D000002000000020AC
:102590006170506173733D00617049503D000000EF
:1025A000747970653D000000415020736574746952
:1025B0006E67733A0D0A000042535349443A2000B3
:1025C00050415353574F52443A20000049503A204B
:1025D00000000000545950453A2000003D3D3D3D6B
:1025E0003D3D3D3D3D3D3D3D0D0A000010B50446DD
:1025F000FDF741FE214682B2BDE810406423014848
:10260000FEF726BD4405002010B50446FDF733FE55
:10261000214682B2BDE8104064230148FEF718BD90
:102620008405002041540D0A00415445300D0A0034
:1026300041542B43574D4F44453D310D0A00415401
:102640002B43574A41503F0D0A0041542B434950F8
:102650004D55583D300D0A0041542B4349465352C5
:102660000D0A0041542B43495053454E443D00410F
:10267000542B43575341503D224553503031222C67
:102680002C352C300D0A0041542B4349504D5558E0
:102690003D310D0A0041542B43574D4F44453D32C7
:1026A0000D0A0041542B4349505345525645523D63
:1026B000312C38300D0A0041542B43574C49460DFC
:1026C0000A003C21444F43545950452068746D6CB6
:1026D0003E3C68746D6C3E3C686561643E3C6C6970
:1026E0006E6B2072656C3D2269636F6E222068728A
:1026F00065663D22646174613A3B6261736536349C
:102700002C3D223E3C6D6574612063686172736587
:10271000743D2255544638223E3C7469746C653EC3
:102720005061726B65722073657474696E67733C77
:102730002F7469746C653E3C2F686561643E3C6231
:102740006F64793E3C6831207374796C653D227406
:102750006578742D616C69676E3A2063656E746587
:10276000723B223E53544D33322F4553503031206B
:1027700057692D46692020574542205345525645FA
:10278000523C2F68313E3C666F726D206163746904
:102790006F6E3D22415022206D6574686F643D224A
:1027A000474554223E41636365737320706F696EC1
:1027B00074206E616D65203A3C696E70757420748A
:1027C0007970653D2274657874222073697A653D5D
:1027D00022313522206E616D653D2261704E616D42
:1027E00065222F3E3C62722F3E4163636573732006
:1027F000706F696E742070617373203A3C696E70FB
:10280000757420747970653D227465787422207324
:10281000697A653D22313522206E616D653D226108
:102820007050617373222F3E3C62722F3E4163638E
:1028300065737320706F696E742069700920203A87
:102840003C696E70757420747970653D227465788A
:1028500074222073697A653D22313522206E616DC4
:10286000653D2261704950222F3E3C62722F3E53DB
:10287000746174696F6E3A203C696E70757420746F
:102880007970653D22726164696F222076616C7592
:10289000653D22535422206E616D653D227479702E
:1028A00065222F3E3C62722F3E4163636573732045
:1028B000706F696E74203A3C696E7075742074791B
:1028C00070653D22726164696F222076616C756566
:1028D0003D22415022206E616D653D227479706504
:1028E000222F3E3C62722F3E3C696E7075742074DC
:1028F0007970653D227375626D69742276616C75BD
:10290000653D225375626D6974222F3E3C2F666FC0
:10291000726D3E3C62722F3E3C62722F3E3C68728A
:102920003E3C62722F3E3C2F626F64793E3C2F68C2
:10293000746D6C3E004D692039542050726F000058
:102940000000000000000000007177657274797566
:10295000696F703232330000000000000041542BD8
:1029600043495053544152543D22544350222C2247
:102970003139322E3136382E34332E3736222C3937
:102980003037360D0A000000000000000000010290
:102990000304060708090000000001020304000008
:1029A000C02900080000002030000000E81E0008D8
:1029B000F029000830000020C8090000F81E0008B7
:1029C0000101000041500000000000000000000074
:1029D00000000000000000000000000000000000F7
:1029E0000100000010000000000000000024F400BE
:040000050800019559
:00000001FF
