:020000040800F2
:10000000380A0020AD010008231500086B12000813
:100010002115000835030008F11E0008000000004B
:10002000000000000000000000000000271500088C
:1000300037030008000000002515000859180008C3
:10004000C7010008C7010008C7010008C701000870
:10005000C7010008C7010008C7010008C701000860
:10006000C7010008C7010008C7010008C701000850
:10007000C7010008C7010008C7010008C701000840
:10008000C7010008C7010008C70100080000000000
:10009000000000000000000000000000C701000890
:1000A000C7010008C7010008C7010008C701000810
:1000B000C7010008C7010008C7010008C701000800
:1000C000C7010008C7010008C7010008C7010008F0
:1000D000C7010008AD1E0008C701000800000000AD
:1000E000C7010008C7010008C701000800000000A0
:1000F000000000000000000000000000C701000830
:1001000000000000C7010008C7010008C70100087F
:1001100000000000000000000000000000000000DF
:10012000C7010008C7010008C7010008C70100088F
:10013000C7010008000000000000000000000000EF
:10014000000000000000000000000000C7010008DF
:10015000C7010008C7010008C7010008C70100085F
:10016000C7010008C70100080000000000000000EF
:10017000000000000000000000000000000000007F
:1001800000000000C701000800000000000000009F
:10019000C7010008DFF810D000F0BAF800480047A7
:1001A00021250008AFF30080380A00200648804768
:1001B00006480047FEE7FEE7FEE7FEE7FEE7FEE74C
:1001C000FEE7FEE7FEE7FEE7E518000895010008F8
:1001D0002DE9F05F0546002092469B46884606467C
:1001E000814640241BE0284641464746224600F00F
:1001F0007FF853465A46C01A914110D3114618460B
:10020000224600F066F82D1A67EB01084F46224699
:100210000120002100F05DF817EB00094E41201E7F
:10022000A4F10104DFDC484631462A464346BDE8D6
:10023000F09FD2B201E000F8012B491EFBD27047BB
:100240000022F6E710B513460A4604461946FFF7A2
:10025000F0FF204610BD30B505462A460B4612F881
:10026000010B13F8014B08B1A042F8D01CB10028D3
:1002700002D06D1CF1E7284630BD421C10F8011B6E
:100280000029FBD1801A704730B50546002003468F
:1002900000E05B1C934205D2EC5CC85C201A01D1E3
:1002A000002CF6D130BD30B50B460146002020228F
:1002B000012409E021FA02F59D4205D303FA02F573
:1002C000491B04FA02F52844151EA2F10102F1DCD3
:1002D00030BD202A04DB203A00FA02F100207047EA
:1002E0009140C2F1200320FA03F319439040704774
:1002F000202A04DB203A21FA02F00021704721FA7B
:1003000002F3D040C2F120029140084319467047E1
:10031000064C074D06E0E06840F0010394E8070052
:1003200098471034AC42F6D3FFF738FFFC2B000897
:100330001C2C0008FEE7704770B500244FF47A7556
:1003400040F6B83633A002F08DFA384803E038A002
:1003500002F088FA3C4802F077FA29460BE03BA00D
:1003600002F080FA404803E040A002F07BFA4548E2
:1003700002F06AFA314644A001F004FF00282CD1B3
:100380002FE000BF40F6C41000F0BCF825E03FA00D
:1003900002F068FA434802F057FA31463AA001F0F9
:1003A000F1FE08B1641CE4B23FA002F05BFA4548DC
:1003B00002F04AFA314634A001F0E4FE08B1641CB0
:1003C000E4B241A002F04EFA454802F03DFA41F293
:1003D000883144A001F0D6FE08B1641CE4B2082CB8
:1003E00012D0C82000F08EF8082CF8D2DFE804F014
:1003F0000B0A090807060504E3E7D5E7C7E7C1E7E5
:10040000B2E7ACE7A3E79DE7BDE8704037A002F094
:1004100029BA000073656E645F737472696E672831
:1004200061745F74657374290D0A000080280008E8
:1004300073656E645F737472696E67286563686F55
:100440004F6666290D0A00008528000873656E64F2
:100450005F737472696E67286D756C7469705F4341
:100460006F6E6E290D0A0000E328000873656E6444
:100470005F737472696E67286573705F4D6F646532
:10048000290D0A00F12800084F4B000073656E64C7
:100490005F737472696E672873746172745F415020
:1004A000290D0A00CB28000873656E645F737472AF
:1004B000696E672873746172745F536572766572D2
:1004C000290D0A00FF28000873656E645F7374725B
:1004D000696E67286765745F4950290D0A0000003E
:1004E000B42800082B43494653523A0041636365E0
:1004F000737320706F696E74206973207265616414
:10050000790D0A0070B5044600F0D8F80546601C65
:1005100002D004480078044400F0D0F8401BA04208
:10052000FAD370BD200000202DE9F84FDFF860B14C
:1005300000224FF001084FF0030A4FF00F090BF1B2
:10054000040E00BF0B6808FA02F42340A3426ED1E8
:100550004D68022D01D0122D0ED1D50800EB850C6F
:10056000DCF820505607F70E09FA07F6B5430E6976
:10057000BE402E43CCF82060066855000F790AFA79
:1005800005FC07F0030726EA0C06AF403743076077
:100590004E68012E05D0022E03D0112E01D0122E4E
:1005A0000ED18668CF6826EA0C06AF4037438760D5
:1005B0004668A6430C79C4F3001494403443446065
:1005C000C6688C6826EA0C06AC403443C4604C68AC
:1005D000E40056D52F4C256845F4804525602468F5
:1005E00022F0030504F4804400942B4C2E19D6F815
:1005F000084895072F0F09FA07F5AC43274DA84285
:1006000001D1002515E0264DA84201D1012510E0B9
:10061000244DA84201D102250BE0234DA84201D16F
:10062000032506E0214DA84202D1042501E028E07F
:100630000725BD402543C6F80858DBF800405D4655
:100640004E689C43F60300D51C432C60DEF8004046
:1006500075464E689C43B60300D51C432C600C4D78
:1006600008352C684E689C43F60200D51C432C606C
:10067000074D0C352C684E689C43B60200D51C43D0
:100680002C60521C102AFFF45DAFBDE8F88F00000B
:10069000003C01404438024000300140000002406C
:1006A0000004024000080240000C0240001002401A
:1006B0000AB1816170470904FBE7000001488068C6
:1006C0007047000020000020024881680278114431
:1006D00081607047200000200B4810B5016841F48C
:1006E00000710160016841F480610160016841F4BA
:1006F00080710160032000F071F8002000F006F81E
:1007000000F024F8002010BD003C024070B50D4DF3
:1007100004464FF47A712878B1FBF0F00A49096871
:10072000B1FBF0F000F0E2FA48B9102C07D2002239
:100730002146501E00F032F800206C6070BD012090
:1007400070BD0000200000202C0000200B4882B06B
:10075000016841F480410160006800F4804000902D
:100760000648001F016841F080510160006800F0F8
:1007700080500090072002B000F030B844380240AA
:10078000002809DB00F01F02012191404009800090
:1007900000F1E020C0F8001170470000F0B40E4BEB
:1007A0001B680C46C3F30223C3F10705042D00D9CF
:1007B0000425191D072901D2002300E0DB1E0126B4
:1007C00006FA05F1491E214099409E40761E1640CA
:1007D0003143F0BC01F0B2BB0CED00E0064900F083
:1007E000070208684FF6FF03184040EA0220034A58
:1007F00010430860704700000CED00E00000FA05AF
:100800002DE9F0470E46050065D0DFF81481D8F8D1
:100810000000F7B200F00F00B04207D288F8007075
:10082000D8F8000000F00F00B04254D128683D4CC9
:10083000810712D5400703D5206840F4E0502060BE
:100840002878000703D5206840F4604020602068C5
:10085000A96820F0F000084320602878C0072DD058
:10086000304968680839012812D0022813D00328BB
:1008700011D00968890700292DDA216821F00301C8
:1008800001432160FFF71AFF814641F2883A0EE0EA
:1008900009688903EFE709688901ECE7FFF70EFFB4
:1008A000A0EB0901514502D90320BDE8F08720687B
:1008B000696800F00C00B0EB810FEFD1D8F80010A0
:1008C000404601F00F01B14207D90770006800F0FF
:1008D0000F00B04201D00120E7E72878400705D596
:1008E0002068E96820F4E050084320602878000779
:1008F00006D52068296920F4604040EAC1002060E4
:1009000000F036F82168084AC1F30311515CC84071
:10091000064908600020FFF7F9FE0020C5E7000047
:10092000003C024008380240E22B00082C00002066
:100930000448054900680968044AC1F38221515CF2
:10094000C84070472C00002008380240F22B0008F5
:100950000448054900680968044AC1F34231515C02
:10096000C84070472C00002008380240F22B0008D5
:10097000154810B5006810F00C02144813D041104F
:10098000042A0FD0082A0ED10F4C241F2268236896
:1009900002F03F025B0207D52068C0F38810A0FB7D
:1009A000010106E0084610BD2168C1F38811A1FBD2
:1009B00000010023FFF70CFC2168C1F30141491C31
:1009C0004900B0FBF1F010BD083802400024F400EB
:1009D0002DE9F84F050076D02878DFF8F8B2BE4C44
:1009E000C00749D0DBF800105846C1F38101012946
:1009F00008D00068C0F3810002280AD1201D0068D9
:100A0000400206D52068800336D568680028E2D009
:100A100032E06868B0F5803F10D0B0F5A02F2068B4
:100A200010D020F480302060206820F480202060E6
:100A30006868A0B1FFF742FE06460CE0206840F46B
:100A40008030F4E740F480202060F7E7FFF736FEBF
:100A5000801B642873D820688003F7D50CE0FFF76B
:100A60002DFE064605E000BFFFF728FE801B642828
:100A7000F0D820688003F7D42878DFF860828007F8
:100A80004FF000093ED5DBF80010584611F00C0F6E
:100A900009D00068C0F3810002280BD18D48001FE7
:100AA0000068400206D42068800715D5E868012850
:100AB00009D111E0E868B8B10120C8F80000FFF7DB
:100AC000FDFD064605E002E1FFF7F8FD801B022868
:100AD000C0D820688007F7D52068296920F0F80081
:100AE00040EAC10020600DE0C8F80090FFF7E6FD85
:100AF000064604E0FFF7E2FD801B02281FD82068AD
:100B00008007F7D42878000722D5724E74486969A7
:100B10006C3671B101210160FFF7D0FD074604E09A
:100B2000FFF7CCFDC01B022809D830688007F7D535
:100B30000EE0C0F80090FFF7C1FD074605E083E036
:100B4000FFF7BCFDC01B02287ED830688007F7D4B1
:100B50002878400768D5DFF87CA100270AF1380A19
:100B6000DAF80000C0000BD4DAF8001041F0805130
:100B7000CAF80010DAF80000012700F08050009059
:100B8000584E3068C00510D4306840F48070306032
:100B9000FFF794FD009005E0FFF790FD0099401AE3
:100BA000022851D83068C005F6D54A4EA868683684
:100BB00001280FD00528306810D020F001003060E7
:100BC000306820F004003060A868B8B1FFF776FD07
:100BD00000900FE0306840F00100F4E740F00400BE
:100BE0003060F7E7FFF76AFD0099411A41F288305B
:100BF000814264D830688007F4D50EE0FFF75EFDCF
:100C0000009007E0FFF75AFD0099411A41F2883041
:100C1000814254D830688007F4D42FB1DAF800103C
:100C200021F08051CAF80010A869C0B3DBF80010A9
:100C3000C1F3810102294AD00228484607D0C8F8EA
:100C40006000FFF73BFD00E039E005463AE047462B
:100C5000C8F86000FFF732FD064604E0FFF72EFDFE
:100C6000801B02282BD820688001F7D4D5E9070122
:100C70000843A96A1C4A490802EB01416A6A41EA31
:100C80008211084395F82C1040EA01611148001FB9
:100C9000016001203866FFF711FD054605E014E00C
:100CA000FFF70CFD401B022809D820688001F7D50A
:100CB0000BE000BFFFF702FD401B022802D9032012
:100CC000BDE8F88F20688001F4D40020F8E7012007
:100CD000F6E70000083802400038024000004742B2
:100CE000800E4742007000400000FFFF10B5401E1C
:100CF000B0F1807F01D3012010BD4FF0E02460618E
:100D00000F21601701F01AF90020A061072020616F
:100D1000002010BD70B590F83C20012A19D00124A4
:100D200000F83C4F0222427050F83C3C5A689D68E3
:100D300022F070060A684968324325F0800529438D
:100D40005A6050F83C2C91604470002101700846B4
:100D500070BD022070BD10B5040003D094F83D00B2
:100D600010B107E0012010BD002084F83C002046AF
:100D700000F00CF8022084F83D00211D206800F0EE
:100D8000DBFD012084F83D00002010BD08B500689F
:100D9000B0F1804F08D10548016841F001010160C0
:100DA000006800F00100009008BD000040380240DB
:100DB00070B5044690F83C00012817D0012584F84E
:100DC0003C50022084F83D002068826822F07702BF
:100DD00022F47F4282600868502830D00DDC202841
:100DE0004DD005DC98B310283BD148E0022070BDFF
:100DF000302844D0402834D139E0602828D07028E9
:100E000006D0B0F5805F2CD0B0F5005F29D10AE0A4
:100E1000CB68D1E90121206800F0E7FD20688168F6
:100E200041F0770109E0CB68D1E90121206800F0A9
:100E3000DCFD2068816841F48041816011E0CA686E
:100E40004968206800F086FE5021206807E016E01F
:100E5000CA684968206800F08EFE6021206800F0B2
:100E6000CEFD84F83D50002084F83C0070BDCA6877
:100E70004968206800F06EFE40212068EFE7226894
:100E800001461046EBE7000070B586B00446142119
:100E90006846FFF7D5F9206800251F4902241F4E38
:100EA000B0F1804F26D01E4A904221D1086840F010
:100EB00004000860086800F004000590086840F02D
:100EC00002000860086800F00200059088158DE8AF
:100ED00031000394694613480494FFF725FB102062
:100EE0008DE831000394694604943046FFF71CFBFB
:100EF00006B070BD086840F00200086008686946E6
:100F000000F0020005904FF480608DE83100012070
:100F1000CDE90340E9E70000303802400004024018
:100F2000000400400008024070B5044690F83C0000
:100F30000D4601280DD0012684F83C60022084F87B
:100F40003D0042B1042A18D0082A2AD00C2A4DD1DB
:100F500039E0022070BD206800F05AFD20688169E8
:100F600041F0080181612068816921F004018161FB
:100F7000206881692A69114311E0206800F070FD42
:100F80002068816941F4006181612068816921F4F0
:100F900080618161206881692A6941EA0221816159
:100FA00024E0206800F088FD2068C16941F0080154
:100FB000C1612068C16921F00401C1612068C16973
:100FC0002A69114311E0206800F0A2FD2068C16980
:100FD00041F40061C1612068C16921F48061C1618F
:100FE0002068C1692A6941EA0221C16184F83D6033
:100FF000002084F83C0070BD10B5040003D094F8C4
:101000003D0010B107E0012010BD002084F83C0035
:10101000204600F00DF8022084F83D00211D2068D4
:1010200000F08AFC012084F83D00002010BD000083
:1010300008B500680649884208D10648016841F0B1
:1010400002010160006800F00200009008BD00008D
:10105000000400404038024010B5044600680122F8
:1010600000F0B6FC09492068884203D1416C41F484
:10107000004141642068816801F00701062903D01E
:10108000016841F001010160002010BD0000014035
:1010900070B5040004D094F83900002510B106E0C2
:1010A000012070BD84F83850204600F023F8242039
:1010B00084F839002068C16821F40051C1602046DD
:1010C00000F06CFD2068016921F490410161206805
:1010D000416921F02A0141612068C16841F4005151
:1010E000C160E563202084F8390084F83A000020CC
:1010F00070BD000070B586B0044614216846FFF745
:101100009FF8274E236800222649022407252648F7
:10111000B34226D1234B14331E6846F010061E60DE
:101120001B6803F0100305930B6843F001030B6089
:101130000968049501F0010105914FF4C061CDE902
:1011400000140321CDE902216946FFF7EDF90022E1
:1011500011462520FFF722FB2520FFF711FB06B0E3
:1011600070BD124EB342FAD10E4B10331E6846F4D6
:1011700000361E601B6803F4003305930B6843F0D0
:1011800001030B60096801F0010105910C21009138
:10119000CDE90142CDE903256946FFF7C5F9DEE750
:1011A000001001403038024000000240004400407E
:1011B0002DE9F843044690F839001F4616460D46BF
:1011C000202850D1A5B19EB194F8380001284AD00A
:1011D000012084F838004FF00008C4F83C8021203A
:1011E00084F83900FFF76AFAA6848146E68426E08F
:1011F0000120BDE8F883E08C401EE084A0684B46E7
:10120000B0F5805F4FF000024FF08001204600975C
:1012100003D000F019FEE8B90DE000F015FEC8B9E2
:1012200028882168C0F308004860206908B16D1C57
:1012300005E0AD1C03E0216815F8010B4860E08C67
:101240000028D8D14B46002240212046009700F0CC
:10125000FBFD08B10320CCE7202084F8390084F896
:1012600038800020C5E70220C3E7FEE710B500F094
:10127000BDFF2EA12E48FEF7EEFF40B100F060FF4B
:101280002CA12B48FEF7E7FF0028F7D046E02AA163
:101290002748FEF7E0FF40B101F0ECF825A1244813
:1012A000FEF7D9FF0028F7D038E024A12048FEF748
:1012B000D2FF40B101F046FA1EA11D48FEF7CBFF58
:1012C0000028F7D02AE01EA11948FEF7C4FF40B15C
:1012D00001F004F917A11648FEF7BDFF0028F7D06A
:1012E0001CE018A11248FEF7B6FF40B101F06EFAFB
:1012F00010A10F48FEF7AFFF0028F7D00EE012A1B3
:101300000B48FEF7A8FF00280ED000BF01F07CFAC2
:1013100008A10748FEF79FFF0028F7D001F036FA32
:10132000BDE8104000F062BF10BD00006200000088
:10133000D00000207A00000066000000720000006B
:101340006C00000071000000650000002DE9F04312
:1013500087B014216846FEF773FF34480024016803
:1013600041F004010160016801F004010591016888
:1013700041F080010160016801F080010591016880
:1013800041F001010160016801F00101059101686E
:1013900041F0020101600068254F00F00200059055
:1013A00000226C213846FFF783F9DFF888804FF47C
:1013B0009076002231464046FFF77AF9DFF87890C0
:1013C000002220214846FFF773F94FF400500090A7
:1013D0001A48CDE9010469463846FFF7A5F86C20A4
:1013E00000900125CDE90154694638460394FFF782
:1013F0009BF80096CDE90154694640460394FFF7F7
:1014000093F8A803CDE900040220029069464846FB
:10141000FFF78AF820200090CDE90154694648463C
:101420000394FFF781F807B0BDE8F083303802403D
:1014300000080240000002400004024000002110A9
:1014400010B58EB000240794089409940A940B9464
:101450001C2168460C94FEF7F3FE16484FF08041BD
:10146000C0E900144FF6FF71C0E9024104618461D4
:10147000FFF771FC4FF48050079007A90D48FFF764
:1014800097FC0C48FFF7B8FD0B940BA909480C9486
:10149000FFF740FC6020CDE9000402940822694671
:1014A00004480494FFF740FD0248FFF7EDFC0EB03E
:1014B00010BD00000405002010B58AB00024079478
:1014C0001C2168460894FEF7BBFE14481249C0E987
:1014D00000144FF6FF71C0E9024104618461FFF717
:1014E0008BFD079407A90D480894FFF713FC6020B3
:1014F000CDE9000402940022694608480494FFF7ED
:1015000013FD082269460548FFF70EFD0348FFF763
:10151000BBFC0AB010BD00000004004044050020E0
:10152000FEE7704770477047F0B593B000247EA087
:101530000F9401F097F982A001F086F940F6C410EB
:10154000FEF7E0FF00F052FE80A001F08BF9FEF7FD
:10155000F3FE824D687800285DD1642180A000F000
:1015600011FE002836D02878002833D08048FEF7B6
:1015700084FE2C22CDE9002070A1029100237DA2DF
:101580007FA10FA800F0C6FC0FA801F06BF90FA80F
:1015900001F05AF93220FEF7B5FF4FF4FA717BA043
:1015A00000F0F0FD0028D8D000F020FE704801F0D7
:1015B0004BF93220FEF7A6FF4FF47A7174A000F0C9
:1015C000E1FD0028C9D03220FEF79CFF00F00EFE9E
:1015D0002C70C2E764216FA000F0D4FD0128BCD1BB
:1015E00028780028B9D10120287054A001F03AF9D8
:1015F0006B4801F037F951A001F034F900F0F0FF29
:1016000000F0F4FD3220FEF77DFF654801F02AF975
:1016100064A001F027F9624864A12838FEF71BFE98
:1016200000286CD062A001F01DF900F0F1FD64A16A
:10163000D1E90001CDE91001342102A8FEF700FE36
:1016400040F2093601254FF4FA67002310AA5EA183
:1016500002A800F05FFC02A95DA000F04BFC61A0B5
:1016600000F048FC02A8FEF708FE034633A0CDE9CF
:101670000004634A63A1664800F04CFC644801F032
:10168000E3F83220FEF73EFF62A000F033FC02A830
:1016900001F0DAF8424801F0E5F800F09BFD394628
:1016A00061A000F06FFD18B1002561A001F0DAF82B
:1016B0000023324661A102A800F02CFC02A944A03C
:1016C00000F018FC47A000F015FC02A8FEF7D5FDBD
:1016D00003461AA0CDE90004494A4AA14C4800F04B
:1016E00019FC4B4801F0B0F83220FEF70BFF02A8BE
:1016F00001F0AAF8FFF7BAFD012DD9D1A5E72848D6
:1017000050A12838FEF7A7FD10B96878002808D046
:101710004DA001F0A7F8FEF70FFE00BFFFF7A6FDF2
:10172000FCE713B0F0BD000073656E645F73747204
:10173000696E672872657374617274290D0A0000FE
:1017400041542B5253540D0A00000000537461722F
:101750007420494E49540D0A00000000000000208A
:10176000474554202F20485454502F312E3100002B
:101770001E29000841542B43495053454E443D0017
:101780002573256425632564257300003E00000051
:101790004F4B0000474554202F41503F00000000B0
:1017A000D00000206F6B65790000000053540000EA
:1017B0005354207374617274696E670D0A000000DF
:1017C000696D2053544D000025732563000000000F
:1017D0006164635F76616C7565203D2025730D0A39
:1017E0000000000073656E645F5453505F73697A44
:1017F000656F665F6D6573736167650D0A00000054
:10180000BF280008257325642573256300000000A8
:101810000406002073656E645F5453505F6D6573FA
:10182000736167650D0A000053454E44204F4B001D
:1018300073656E6420454E440D0A000025642563DF
:101840000000000041500000415020737461727428
:10185000696E670D0A000000FEF736BF30B593B021
:1018600030216846FEF7ECFC14210CA8FEF7E8FCDA
:101870001A480024016841F080510160006800F0BE
:10188000805011901648016821F4404141F4004114
:1018900001600068022500F440401190012003908F
:1018A0001020009506950490CDE907404FF4A870EC
:1018B000099004200A9007200B906846FFF788F8EB
:1018C0000F20CDE90C05E802CDE90E4002210CA85D
:1018D0001094FEF795FF13B030BD00004038024071
:1018E000007000401048016841F4700101600F4829
:1018F000016841F0010101600C4A002108321160C9
:1019000002680B4B1A400260031D0A4A1A60026803
:1019100022F48022026005480C300160024958061A
:10192000803908607047000088ED00E00038024010
:10193000FFFFF6FE10300024F0B502681D4B1E4C70
:101940009F031E4D1E4E984207D0B84205D0A042BC
:1019500003D0A84201D0B04204D122F0700C4A68F2
:1019600042EA0C02984210D0B8420ED0A0420CD0ED
:10197000A8420AD0B04208D0124CA04205D0124C66
:10198000A04202D0114CA04203D122F44074CA6894
:1019900022434C6922F08002224302608A68C262BC
:1019A0000A688262984201D109690163012141619B
:1019B000F0BD0000000001400004004000080040AD
:1019C000000C00400040014000440140004801403C
:1019D00010B501F01F030121046A99408C43046291
:1019E000016A9A401143016210BD10B5846842EA51
:1019F000032224F47F440A432243826010BD82689C
:101A000022F070020A4342F0070181607047000033
:101A100030B5026A22F001020262026A43688469F8
:101A200024F073050C682C4322F002058A682A43CF
:101A30000A4DA8420BD122F00805CA6823F440736E
:101A40002A434D6922F004021D438B692B434360F6
:101A5000846149684163026230BD000000000140BA
:101A600030B5026A22F010020262026A4368846999
:101A70000D6824F4E64444EA05248D6822F020022F
:101A800042EA05120B4DA8420ED1CD6822F0800229
:101A900042EA05124D6923F4406343EA85038D69E8
:101AA00022F0400243EA8503436084614968816310
:101AB000026230BD0000014030B5026A22F480723B
:101AC0000262036A4268C46923F4007324F0730558
:101AD0000C682C438D6843EA05230C4DA8420ED1B7
:101AE000CD6823F4006343EA05234D6922F4405294
:101AF00042EA05128D6923F4806342EA05124260CE
:101B0000C4614968C163036230BD00000000014048
:101B100030B5026A22F480520262046A4268C369E4
:101B20000D6823F4E64343EA05238D6824F400544A
:101B300044EA0534064DA84204D14D6922F480429E
:101B400042EA85124260C36149680164046230BDA3
:101B50000000014010B5036A046A24F00104046225
:101B6000846924F0F00444EA021423F00A020A43D0
:101B70008461026210BD10B5036A23F01003036292
:101B80008369046A23F4704343EA023224F0A00319
:101B900043EA01118261016210BD00002DE9F041AC
:101BA000044600680169E26821F440511143016173
:101BB0002169A068E269084361691143226808430A
:101BC000D16849F20C6399430143D16020684169AF
:101BD000A26921F4407111434161E2696425B2F5C3
:101BE000004F9748974922684FF032083FD08A4209
:101BF00001D082427CD1FEF7ABFE00EBC00101EBCD
:101C0000001061688900B0FBF1F6FEF7A1FE00EB61
:101C1000C00101EB001061688900B0FBF1F0B0FB7E
:101C2000F5F06FF01801484306EB800108EB011056
:101C3000B0FBF5F000F0F006FEF78AFE00EBC00105
:101C400001EB001061688900B0FBF1F0B0FBF5F02A
:101C500006EB0016FEF77CFE00EBC00101EB001066
:101C600061688900B0FBF1F7FEF772FED2E08A42AC
:101C700001D082423DD1FEF76BFE00EBC00101EBCB
:101C8000001061684900B0FBF1F0B0FBF5F006010F
:101C9000FEF75EFE00EBC00101EB00106168490039
:101CA000B0FBF1F7FEF754FE00EBC00101EB0010B2
:101CB00061684900B0FBF1F0B0FBF5F06FF018017E
:101CC000484307EB800108EBC100B0FBF5F000F0E2
:101CD000F80006EB4006FEF73BFE00EBC00101EB0F
:101CE000001061684900B0FBF1F7FEF731FE3CE0FF
:101CF00055E0FEF71DFE00EBC00101EB001061682E
:101D00004900B0FBF1F0B0FBF5F00601FEF710FE64
:101D100000EBC00101EB001061684900B0FBF1F776
:101D2000FEF706FE00EBC00101EB00106168490000
:101D3000B0FBF1F0B0FBF5F06FF01801484307EB92
:101D4000800108EBC100B0FBF5F000F0F80006EBF5
:101D50004006FEF7EDFD00EBC00101EB00106168ED
:101D60004900B0FBF1F7FEF7E3FD00EBC00101EB2A
:101D7000001061684900B0FBF1F0B0FBF5F06FF0C6
:101D80001801484307EB800108EBC100B0FBF5F0F8
:101D900000F00700216830448860BDE8F081FEF75C
:101DA000C7FD00EBC00101EB001061688900B0FBCA
:101DB000F1F6FEF7BDFD00EBC00101EB001061681C
:101DC0008900B0FBF1F0B0FBF5F06FF0180148436B
:101DD00006EB800108EB0110B0FBF5F000F0F00617
:101DE000FEF7A6FD00EBC00101EB00106168890061
:101DF000B0FBF1F0B0FBF5F006EB0016FEF798FD36
:101E000000EBC00101EB001061688900B0FBF1F745
:101E1000FEF78EFD00EBC00101EB00106168890048
:101E2000B0FBF1F0B0FBF5F06FF01801484307EBA1
:101E3000800108EB0110B0FBF5F000F00F00A9E7FE
:101E400000140140001001402DE9F041984617466A
:101E50000E460446069D1DE0681C1BD02DB1FEF702
:101E60002DFCA0EB0800A84214D92068C16821F419
:101E7000D071C1602068416921F0010141612020D9
:101E800084F8390084F83A00002084F838000320F0
:101E9000BDE8F0812068006836EA000004D0002028
:101EA000B842D9D00020F3E70120F9E770B50C481B
:101EB00001680C4C0C4D89060DD54068C1B2A08854
:101EC0002A18401CA0801170A088C0F30900A080CF
:101ED00006A000F00FF8A18800202944487070BDCA
:101EE0000010014000000020D00000202563000009
:101EF000FEE700000FB4054B10B503A9044A029891
:101F000000F03CF810BC5DF814FB0000C124000890
:101F10001C0000200FB4084B10B504A902AA0398B6
:101F200000F02CF8044602A9002000F003F9204636
:101F300010BC5DF814FB0000352100080907090EEC
:101F4000002804DB00F1E02080F80014704700F066
:101F50000F0000F1E02080F8141D704702E008C86F
:101F6000121F08C1002AFAD170477047002001E013
:101F700001C1121F002AFBD1704700002DE9FF4F5D
:101F80008BB09A460F460546002606E025280BD062
:101F900052460D9990476D1C761C28780028F5D183
:101FA0000FB03046BDE8F08F0024A0460122604902
:101FB00000E0044315F8013F203B02FA03F0084219
:101FC000F7D128782E2817D115F8010F44F0040412
:101FD0002A280ED06FF02F022878A0F130010929AD
:101FE0000AD808EB880102EB410100EB01086D1CE7
:101FF000F2E757F8048B6D1C287869283ED006DC80
:102000000028CDD063280BD0642804D136E0732893
:1020100010D075284BD052460D999047761C85E01C
:1020200017F8040B8DF8000000208DF80100E94638
:10203000012003E057F8049B4FF0FF3061074FF099
:10204000000401D40AE0641C44450DDA8442FADB42
:1020500019F804100029F6D106E0641C8442FCDB68
:1020600019F804100029F8D1264404E019F8010BEE
:1020700052460D999047641EF8D257E001CF4FF0B9
:102080000A0B002802DA40422D2102E0210504D586
:102090002B218DF82410012103E0E10705D0202138
:1020A000F7E70DF1200908910CE00021F9E701CFD5
:1020B0004FF00A0BF9E75946FEF7F5F801F1300247
:1020C00009F8012D0028F6D1ADEB090000F1200B35
:1020D000600701D44FF00108D84502DDA8EB0B00E2
:1020E00000E000208046002406E009A85246005D7A
:1020F0000D999047641C761C08988442F5DB04E037
:10210000302052460D999047761CB8F10001A8F195
:102110000108F5DC05E019F8010B52460D999047CE
:10212000761CBBF10001ABF1010BF4DC6D1C34E754
:10213000092801000A68531C0B60107070470000EA
:1021400010B5012220210948FEF7B2FA012211023E
:102150000748FEF7ADFA07480749408808600907B5
:10216000C863BDE8104005A000F07CBB000402403D
:102170000000024000000020340400404261636B14
:102180000D0A000070B50D460646FEF797FA0446A4
:102190000EE031460C48FEF75EF848B10B48FEF7FA
:1021A0006CF802460AA10948FEF76EF838B108E05B
:1021B000FEF784FA001BA842EBD3002070BD00F0AC
:1021C00015F8012070BD0000D0000020060000209E
:1021D000535400000020044902460A54401C80B2B7
:1021E0003228FAD370470000D004002000210648AE
:1021F000064B04E0828899548288521E828082882D
:10220000002AF7D18180704700000020D000002014
:102210003EB500244FF47A7540A000F023FB4548FA
:1022200003E045A000F01EFB494800F00DFB71E003
:1022300048A043E048A000F015FB4E48F5E74EA04B
:1022400000F010FB52A000F0FFFA40F6C410FEF7B9
:1022500059F9FFF7CBFF34E050A000F003FB5749DA
:1022600055A257A08DE80700A1F1140355A258A16B
:102270005A48FFF74FFE594800F0E6FA42F2107153
:10228000D6E757A000F0EEFA5E4800F0DDFA41F222
:102290008831CDE75CA000F0E5FA6148C5E761A0B0
:1022A00000F0E0FA6348C0E763A000F0DBFA4348BF
:1022B000143000F0C9FA40F6B83164A0FFF762FFAD
:1022C00018B1641CE4B20A2C26D0C820FEF71AF913
:1022D0000A2CF8D2DFE804F00D0C0B0A09080706F7
:1022E000050EE1E7DBE7D5E7CBE7B5E7A7E7A1E731
:1022F00097E791E757A000F0B5FA5C4800F0A4FA20
:102300005B48FDF7BAFF5A4982B22B4601F2F4400E
:10231000FEF74EFF29468BE73EBD000073656E64F5
:102320005F737472696E672861745F746573742972
:102330000D0A00008028000873656E645F73747274
:10234000696E67286563686F4F6666290D0A00002D
:10235000852800084F4B000073656E645F737472CC
:10236000696E672873746174696F6E5F6D6F646501
:10237000290D0A008C28000873656E645F737472FF
:10238000696E672872657374617274290D0A0000A2
:1023900041542B5253540D0A0000000073656E64C3
:1023A0005F737472696E6728636F6E6563745F74C0
:1023B0006F5F4150290D0A00220D0A00A52B00086D
:1023C000222C220041542B43574A41503D22000009
:1023D00025732573257325732573000004060020DB
:1023E00073656E645F737472696E6728636F6E6580
:1023F00063745F746F5F41505F7374737475732996
:102400000D0A00009A28000873656E645F73747289
:10241000696E67286765745F4950290D0A000000DE
:10242000B42800084E6F4D756C74436F6E6E0D0AC4
:1024300000000000A6280008636F6E6E65637420BC
:10244000746F207365727665720D0A00434F4E4EAD
:1024500045435400696E666F2061626F7574206336
:102460006F6E6E6563743A0D0A0000001329000850
:10247000D000002010B5002220210A48FEF718F9EC
:1024800000224FF480710848FEF712F90748084906
:10249000408808600907C863BDE8104005A000F047
:1024A000E1B90000000402400000024000000020EA
:1024B00034040040466F72776172640D0A000000B8
:1024C00005490968C90105D54FF060410A68002A2D
:1024D000FCD0087070470000FCED00E010B5002251
:1024E00020210948FEF7E4F8012211020748FEF70F
:1024F000DFF807480749408808600907C863BDE856
:10250000104005A000F0AEB90004024000000240F7
:1025100000000020340400404C6566740D0A000081
:10252000F8B5FEF7D9F8FFF799F9FEF70FFF234842
:1025300021494FF4E13600240160C0E901640C2711
:10254000C460C0E904478461C461FEF7A1FD1B4D6E
:102550001B48403D2860C5E90164EC60C5E90447BB
:10256000AC612846EC61FEF793FDFEF7A5FFFEF790
:1025700067FF00942868C16841F02001C160002114
:10258000A5F14000FEF768FD0821A5F18000FEF7E7
:1025900063FD0821A5F14000FEF75EFD09A30AA234
:1025A0000DA16846FFF7B6FC684600F05BF9FEF740
:1025B000BBFF0020F8BD000000440040C40500201F
:1025C000001001400D0A00000D0A494E49542046F2
:1025D000494E4953484544002573257300000000C7
:1025E00070B507253CA13E48FDF735FE3D4C3EA1A8
:1025F000E0603B48FDF72FFE20613DA13848FDF724
:102600002AFE60613CA13648FDF725FEA061344BEF
:102610000020A03BE26802E01954401C6D1C515D93
:102620002629F9D136A000F01DF939A000F01AF9D9
:102630002B48A03800F016F9294D07200021783DDD
:10264000236902E06A54401C491C1A5C262AF9D10D
:102650002EA000F007F930A000F004F920487838E7
:1026600000F000F929A000F0FDF81D4D0021052023
:10267000503D636902E06A54401C491C1A5C262ADA
:10268000F9D128A000F0EEF81548503800F0EAF82B
:102690001EA000F0E7F8A369114C00210520283C9A
:1026A00002E06254401C491C1A5C202AF9D11FA088
:1026B00000F0D8F80A48283800F0D4F813A000F049
:1026C000D1F8074800F0CEF81AA000F0CBF8BDE82A
:1026D0007040FFF78BBD000061704E616D653D007D
:1026E000D0000020000000206170506173733D0035
:1026F000617049503D000000747970653D00000034
:1027000041502073657474696E67733A0D0A000056
:1027100042535349443A200050415353574F524477
:102720003A20000049503A2000000000545950451A
:102730003A2000003D3D3D3D3D3D3D3D3D3D3D3D63
:102740000D0A000010B5012220210A48FDF7B0FF54
:1027500000224FF480710848FDF7AAFF0748084996
:10276000408808600907C863BDE8104005A000F074
:1027700079B8000000040240000002400000002080
:102780003404004052696768740D0A0010B50122D4
:1027900020210948FDF78CFF012211020748FDF7AF
:1027A00087FF0749002008600907C863BDE810409B
:1027B00004A000F057B800000004024000000240EE
:1027C0003404004053746F700D0A000010B50122EC
:1027D00020210748FDF76CFF06480749408808603C
:1027E00000200907C863BDE8104004A000F03AB813
:1027F00000040240000000203404004054616E6B6D
:10280000204C6566740D0A0010B5012211020748BC
:10281000FDF74EFF0649002008600648090740887A
:10282000C863BDE8104004A000F01CB800000240DE
:10283000340400400000002054616E6B2052696730
:1028400068740D0A0000000010B50446FDF715FD80
:10285000214682B2BDE8104064230148FEF7A8BCBF
:102860008405002010B50446FDF707FD214682B21D
:10287000BDE8104064230148FEF79ABCC40500205F
:1028800041540D0A00415445300D0A0041542B4378
:10289000574D4F44453D310D0A0041542B43574A93
:1028A00041503F0D0A0041542B4349504D55583D6E
:1028B000300D0A0041542B43494653520D0A004142
:1028C000542B43495053454E443D0041542B4357EC
:1028D0005341503D224553503031222C2C352C3061
:1028E0000D0A0041542B4349504D55583D310D0AB6
:1028F0000041542B43574D4F44453D320D0A004192
:10290000542B4349505345525645523D312C383093
:102910000D0A0041542B43574C49460D0A003C21F7
:10292000444F43545950452068746D6C3E3C687464
:102930006D6C3E3C686561643E3C6C696E6B2072F8
:10294000656C3D2269636F6E2220687265663D2268
:10295000646174613A3B6261736536342C3D223E9A
:102960003C6D65746120636861727365743D2255C6
:10297000544638223E3C7469746C653E5061726BFB
:1029800065722073657474696E67733C2F74697423
:102990006C653E3C2F686561643E3C626F64793EC5
:1029A0003C6831207374796C653D22746578742DB0
:1029B000616C69676E3A2063656E7465723B223E96
:1029C00053544D33322F45535030312057692D46E3
:1029D000692020574542205345525645523C2F68A6
:1029E000313E3C666F726D20616374696F6E3D228B
:1029F000415022206D6574686F643D224745542222
:102A00003E41636365737320706F696E74206E61FD
:102A10006D65203A3C696E70757420747970653DFF
:102A20002274657874222073697A653D22313522DB
:102A3000206E616D653D2261704E616D65222F3E95
:102A40003C62722F3E41636365737320706F696EE1
:102A5000742070617373203A3C696E7075742074D1
:102A60007970653D2274657874222073697A653DBA
:102A700022313522206E616D653D22617050617397
:102A800073222F3E3C62722F3E4163636573732055
:102A9000706F696E742069700920203A3C696E700D
:102AA000757420747970653D227465787422207382
:102AB000697A653D22313522206E616D653D226166
:102AC000704950222F3E3C62722F3E5374617469EC
:102AD0006F6E3A203C696E70757420747970653D34
:102AE00022726164696F222076616C75653D2253A4
:102AF0005422206E616D653D2274797065222F3EEF
:102B00003C62722F3E41636365737320706F696E20
:102B100074203A3C696E70757420747970653D223A
:102B2000726164696F222076616C75653D22415047
:102B300022206E616D653D2274797065222F3E3CC6
:102B400062722F3E3C696E70757420747970653DB9
:102B5000227375626D69742276616C75653D2253CE
:102B600075626D6974222F3E3C2F666F726D3E3C1C
:102B700062722F3E3C62722F3E3C68723E3C627233
:102B80002F3E3C2F626F64793E3C2F68746D6C3E23
:102B9000004D692039542050726F00000000000081
:102BA000000000000071776572747975696F70328A
:102BB00032330000000000000041542B43495053C1
:102BC000544152543D22544350222C223139322E4A
:102BD0003136382E34332E3736222C393037360DF5
:102BE0000A000000000000000000010203040607C4
:102BF0000809000000000102030400001C2C00086A
:102C000000000020300000005C1F00084C2C000871
:102C100030000020080A00006C1F00080101FFFFBF
:102C20000000415000000000000000000000000013
:102C30000000000000000000000000000100000093
:0C2C400010000000000000000024F40060
:040000050800019559
:00000001FF
